:100000002BC045C0EFC29CC242C041C040C03FC0EF
:100010003EC03DC03CC04AC23AC039C038C007C427
:100020004FC300003900360000003A0037000000DE
:100030003B0038000101010101010101020202023D
:1000400001020408102040800402010800000000A2
:10005000000403020100000011241FBECFE5D2E01E
:10006000DEBFCDBF10E0A0E6B0E0E6E5FCE002C0F8
:1000700005900D92A239B107D9F720E0A2E9B0E0CE
:1000800001C01D92A33DB207E1F718D4E2C5B8CF75
:100090008091D200882339F02091D10082131CC0B6
:1000A0008FEF9FEF08959091D0008091CF00891B32
:1000B0008F70B1F39091D0008091CF009817E1F349
:1000C000E091D000EF5FEF70E093D000F0E0EE56EB
:1000D000FF4F808190E00895E22FF0E0EE56FF4F51
:1000E000808190E02F5F2093D1000895FF920F93BD
:1000F0001F93CF93DF938C01CBDF8093B200F12C61
:1001000001501109CF2DD0E0C017D10784F5C0DF11
:100110002091B2002C0F3D2F311D2930310528F5DB
:10012000A091B200E091B200EC0FFD2FF11DEE574F
:10013000FF4FAC0FBD2FB11DA05ABF4F9C919095A2
:100140002081922390839091B200E091B200EC0F55
:10015000FD2FF11DEE57FF4FC90FD11DC05ADF4FC4
:10016000988198238081892B8083F394CBCF81E081
:1001700080938100DF91CF911F910F91FF9008959F
:1001800080918A0098EF980F903708F081E780936C
:100190008A00D498D6981DB890EF9EB91092D000DE
:1001A0001092CF001092C9001092C8008093CE0028
:1001B0001092CD001092CC001092CB001092CA0089
:1001C000DC9ADE9AD49AD69888EA8DB99EB986E7E9
:1001D00090E09093CB008093CA0084EF91E09093DD
:1001E000CD008093CC0008950895813021F480B72C
:1001F0008F7780BF0895823019F480B78F7DF9CF53
:10020000833021F48FB58F778FBD08958430E9F75F
:100210008FB58F7DF9CFCF93DF9387FD8F7790E0F8
:10022000FC01E05CFF4F24918C5C9F4FFC018491AA
:100230008823D1F090E0880F991FFC01E85DFF4F03
:10024000A591B491FC01E25DFF4FC591D49162305C
:1002500071F49FB7F8943C91822F809583238C93FF
:10026000E8812E2B28839FBFDF91CF9108958FB710
:10027000F894EC912E2B2C938FBFF6CFBF92CF9298
:10028000DF92EF92FF920F931F93CF93DF938FB77D
:10029000F8944091BD005091BE006091BF007091F4
:1002A000C0008FBF0091B3001091B4002091B50041
:1002B0003091B6008091880090918900401B510BCD
:1002C000620B730BB0E0A0E0481759076A077B0781
:1002D00008F47DC02FB7F8948091BD009091BE00C6
:1002E000A091BF00B091C0002FBF8093B300909346
:1002F000B400A093B500B093B600809185008068EB
:10030000809385000BE810E0D0E0C0E0EE24E39499
:10031000F12CD0908500F80121918F0127FD2F77D6
:1003200030E0F901E45BFF4F8491F901E05CFF4F9D
:10033000C490F901EC5CFF4FB490BB2009F451C0AC
:10034000811153DFEB2DF0E0EE0FFF1FEE5DFF4F4D
:10035000A591B491EC91CE2231E020E009F430E097
:10036000832F922F30918500B7010C2E01C0660FAC
:100370000A94EAF7262F20952323209385002091C5
:100380008500AC0131E043270C2E01C0440F0A94D4
:10039000EAF7242B20938500892BA1F08D2D90E086
:1003A0000C2E02C0959587950A94E2F780FF0AC04B
:1003B00080918600862B80938600809186008068DD
:1003C000809386002196C730D10509F0A2CFDF9136
:1003D000CF911F910F91FF90EF90DF90CF90BF9042
:1003E000089590E080E0BECF8091B20049E050E0F7
:1003F000481B51096091B20070E030E020E04217E4
:10040000530701F19091C8008091C9009F5F891B3B
:100410008F70A9F08091C8008F5F8F709091C90094
:100420008917E1F3E82FF0E0EE55FF4FDB01A20F53
:10043000B31FAE57BF4F9C9190838093C8002F5F2E
:100440003F4FDDCF8091B200833029F48091850049
:100450008F77809385008091B200843021F4809161
:100460008600109286000895CF93DF93EC0190E010
:1004700080E0D9D38883CE01DF91CF910895FF9298
:100480000F931F93CF93DF93EC01F62E0881198110
:10049000C801C9D3F81619F06F2DC801CCD3CE010D
:1004A000DF91CF911F910F91FF9008951F920F92AE
:1004B0000FB60F9211242F933F938F939F93AF9377
:1004C000BF938091BD009091BE00A091BF00B091FC
:1004D000C0003091BC0026E0230F2D3768F129E8D9
:1004E000230F0396A11DB11D2093BC008093BD0076
:1004F0009093BE00A093BF00B093C0008091B8005D
:100500009091B900A091BA00B091BB000196A11DD5
:10051000B11D8093B8009093B900A093BA00B09336
:10052000BB00BF91AF919F918F913F912F910F9001
:100530000FBE0F901F9018950296A11DB11DD4CF2C
:100540001F920F920FB60F9211242F933F934F9348
:100550005F936F937F938F939F93AF93BF93CF934B
:10056000EF93FF9396B38091C200C091C600C92358
:10057000282F2095C2232091C4008223292F209563
:100580008223C82B9093C200C0FF05C0E0916F008A
:10059000F09170000995C1FF05C0E0916D00F091E8
:1005A0006E000995C2FF05C0E0916B00F0916C00F0
:1005B0000995C3FF05C0E0916900F0916A000995B3
:1005C000FF91EF91CF91BF91AF919F918F917F91CB
:1005D0006F915F914F913F912F910F900FBE0F90B0
:1005E0001F9018951F920F920FB60F9211242F9300
:1005F0003F934F935F936F937F938F939F93AF93AB
:10060000BF93CF93EF93FF9399B38091C100C091B3
:10061000C500C923282F2095C2232091C30082231F
:10062000292F20958223C82B9093C100C0FF05C0BD
:10063000E0917F00F09180000995C1FF05C0E09135
:100640007D00F0917E000995C2FF05C0E0917B001E
:10065000F0917C000995C3FF05C0E0917900F0910D
:100660007A000995C4FF05C0E0917700F091780009
:100670000995C5FF05C0E0917500F09176000995D8
:10068000C6FF05C0E0917300F09174000995C7FFA3
:1006900005C0E0917100F09172000995FF91EF9112
:1006A000CF91BF91AF919F918F917F916F915F910A
:1006B0004F913F912F910F900FBE0F901F90189563
:1006C0001F920F920FB60F9211242F933F934F93C7
:1006D0005F936F937F938F939F93AF93BF93CF93CA
:1006E000EF93FF938091B700823009F474C0B8F49F
:1006F000882389F1813009F454C0FF91EF91CF91A3
:10070000BF91AF919F918F917F916F915F914F9129
:100710003F912F910F900FBE0F901F90189584302E
:1007200009F45FC0B8F1853041F784E08093B700E9
:100730009FB18091CF008F5F8F702091D0002817DC
:1007400009F473C08093CF00E091CF00F0E0EE5643
:10075000FF4F908319C08FB1882331F08FB18695F8
:100760009091CE00891319C0789B12C0E091CC0003
:10077000F091CD00309729F08091C8008093C90096
:10078000099581E08093B7001FB8D69A8EE721C003
:1007900084E0F8CF8FB1882321F0D69888EA8DB90C
:1007A00017C08091C9009091C8009817B1F380914B
:1007B000C9008F5F8F708093C900E091C900F0E09D
:1007C000EE55FF4F80818FB982E08093B700D69AB3
:1007D00080E78EB992CF83E08093B700D6981FB898
:1007E000D5CF85E08093B700D69880E78EB9E091A9
:1007F000CA00F091CB00309709F47FCFC091CF00B1
:100800008091D0008C1709F478CF8EB18E7AE9F3FD
:10081000759B73CF9091D0008091CF00891B8F7012
:1008200090E00995C093D00068CFD698AFCF1F92C3
:100830000F920FB60F9211242F933F934F935F9314
:100840006F937F938F939F93AF93BF93CF93EF93C8
:10085000FF93E091CA00F091CB00309781F0C091F6
:10086000CF008091D0008C1751F09091D0008091F2
:10087000CF00891B8F7090E00995C093D000109233
:10088000B700D698CC9B18C0CE9BFCCF88EA8DB918
:1008900080EF8EB9FF91EF91CF91BF91AF919F9172
:1008A0008F917F916F915F914F913F912F910F9019
:1008B0000FBE0F901F90189588EFE9CFCF93DF936D
:1008C00000D01F92CDB7DEB781B781BF789480B7D3
:1008D000826080BF80B7816080BF83B7887F83607C
:1008E00083BF789489B7816089BF8EB5887F8EBDBC
:1008F0008FB581608FBD8FB58D7F8FBD8EB5877FA2
:100900008EBD8EB58F7E8EBD8EB583608EBD86B159
:100910008877866886B9379A7BE8E72E70E0F72EED
:10092000E2E9CE2EE0E0DE2E870162E0D8018D9173
:100930008D0171DCC016D106C1F762E087E06BDC87
:1009400016B884E885BF80E885BF85B7877E85BFF8
:1009500085B7806285BFEAE041E050E02EE331E0F8
:10096000D7019D917D018FEF9C3068F481E0983034
:1009700008F480E0880F880F880F983018F0BE2F99
:10098000B91B9B2F890F682F66956695669509F0B0
:10099000F8C08111A1C03093800020937F00BA017C
:1009A00001C0660F8A95EAF7762F8091C500862BE5
:1009B0008093C5008091C300862B8093C30089B3C8
:1009C0008093C10082B3782B72BB90E080E06BB75C
:1009D0000496DA0102C0AA0FBB1F8A95E2F7CD0187
:1009E000862B8BBF0E151F0509F0BACFC9DB80918E
:1009F0008A008093C7000AE010E093E5492E90E05A
:100A0000592E27E4622E20E0722E3BE3E32E30E0E5
:100A1000F32ECC24C394D12C58E0A52EB12C69E040
:100A2000862E912C90918A008091C700981751F0E2
:100A300080918A008093C7001A83098361E0CE0108
:100A400001961DDD8091850087FF04C0809187009D
:100A500081FDC7C08091860087FF04C08091870018
:100A600080FDBFC062E087E0D6DB809181008130ED
:100A700059F580918A008850803708F0D0C0CE01A7
:100A80000396F2DC60918A008B81681731F01A823C
:100A90001982CE010196F3DC73DBDA82C9826091A0
:100AA0008700CE010196EBDCBA82A98260918800B2
:100AB000CE010196E4DC9A82898260918900CE01A0
:100AC0000196DDDC1092810085B7806285BF889534
:100AD00085B78F7D85BFA6CF813029F430937E0006
:100AE00020937D005CCF823029F430937C002093EA
:100AF0007B0055CF833029F430937A00209379001E
:100B00004ECF843041F53093780020937700877082
:100B10006A0101C0CC0C8A95EAF77C2D862F90E003
:100B2000DC01AB53BF4FFC91FC29FC93DC01AD53BE
:100B3000BF4FFC91FC29FC93662309F440CF613040
:100B400009F045CF86B38093C20080B5782B70BD85
:100B500081E090E03CCF853029F4309376002093FB
:100B60007500D5CF863029F430937400209373003C
:100B7000CECF873009F013CF3093720020937100ED
:100B8000C6CF613009F02ECF8830B1F430937000B9
:100B900020936F008770BA0101C0660F8A95EAF74B
:100BA000762F8091C600862B8093C6008091C4006A
:100BB000862B8093C400C6CF893029F430936E0011
:100BC00020936D00A4CF8A3029F430936C002093D9
:100BD0006B009DCF8B30F1F630936A002093690053
:100BE00096CF61E087E017DBF2018491F301349046
:100BF000F7012490222009F438CF8111F6DAE22D92
:100C0000F0E0EE0FFF1FE25DFF4FA591B4918FB7AB
:100C1000F8949C91309439223C928FBF26CFCE011C
:100C2000039622DC3ACFE199FECF9FBB8EBBE09AC0
:100C300099278DB30895262FE199FECF1CBA9FBB4B
:100C40008EBB2DBB0FB6F894E29AE19A0FBE0196C7
:060C50000895F894FFCFA7
:100C5600000000000003FFFFFFF400F400F400F4BE
:100C660000F400F400F400F400F400F400F400F4DE
:100C76000001AE00010000030A00710A0902000823
:020C8600010368
:00000001FF
